:100000000C945A000C9479000C9479000C947900AB
:100010000C9479000C9479000C9479000C9479007C
:100020000C9479000C9479000C9479000C9479006C
:100030000C9479000C94F7000C9479000C947900DE
:100040000C9479000C9479000C9479000C9479004C
:100050000C9479000C9479000C9479000C9479003C
:100060000C9479000C9479000C9479000C9479002C
:100070000C9479000C9479000C9479000C9479001C
:100080000C9479000C9479000C947900F603FB032E
:1000900009040E04130418041D04220427042C046C
:1000A0006A046A0448044C045004540458045C0470
:1000B0006004640411241FBECFEFD0E4DEBFCDBFC7
:1000C00011E0A0E0B1E0EEE2FCE000E00BBF02C016
:1000D00007900D92AA31B107D9F721E0AAE1B1E06A
:1000E00001C01D92AC34B207E1F70E9472040C9477
:1000F00015060C940000CF93DF9300D000D0CDB74D
:10010000DEB769837A838B839C8389819A81AB81F3
:10011000BC818093000190930101A0930201B093F0
:1001200003018091000190910101A0910201B09121
:10013000030180931B0190931C01A0931D01B093B8
:100140001E0100000F900F900F900F90DF91CF9144
:100150000895CF93DF93CDB7DEB781E890E02BE031
:10016000FC01208388E890E02DE730E0FC0131833A
:1001700020838FE690E022E0FC01208384E890E079
:10018000FC01118210828091000190910101A091E7
:100190000201B091030180931B0190931C01A09375
:1001A0001D01B0931E018FE590E02FE530E0F901CD
:1001B00020812068FC0120830000DF91CF91089509
:1001C000CF93DF93CDB7DEB781E890E0FC011082DA
:1001D0000000DF91CF910895CF93DF93CDB7DEB7C5
:1001E00081E080931A010000DF91CF9108951F9262
:1001F0000F9200905F000F92112400905B000F920D
:100200002F933F934F935F936F937F938F939F931E
:10021000AF93BF93EF93FF93CF93DF93CDB7DEB749
:1002200080911B0190911C01A0911D01B0911E01B4
:100230000197A109B10980931B0190931C01A09320
:100240001D01B0931E0180911B0190911C01A09192
:100250001D01B0911E01892B8A2B8B2B91F40E94DA
:10026000EC008091000190910101A0910201B091F8
:10027000030180931B0190931C01A0931D01B09377
:100280001E010000DF91CF91FF91EF91BF91AF91DF
:100290009F918F917F916F915F914F913F912F919E
:1002A0000F9000925B000F9000925F000F901F90E4
:1002B0001895CF93DF93CDB7DEB72C970FB6F89490
:1002C000DEBF0FBECDBF6D837E838F839887298766
:1002D0003A874B875C878D819E81AF81B885298560
:1002E0003A854B855C85BC01CD010E94EA05DC01A5
:1002F000CB0189839A83AB83BC8389819A81AB814B
:10030000BC81892B8A2B8B2B29F489859A85AB8517
:10031000BC8511C089859A85AB85BC858D839E83FC
:10032000AF83B88789819A81AB81BC8189879A879D
:10033000AB87BC87D0CFBC01CD012C960FB6F8940B
:10034000DEBF0FBECDBFDF91CF910895CF93DF9376
:1003500000D01F92CDB7DEB789837B836A83898102
:100360008A3031F48A819B81BC018DE00E94A60114
:1003700080EC90E0FC018081882F90E080729927CA
:10038000892BB1F386EC90E02981FC01208380E089
:1003900090E00F900F900F90DF91CF910895CF9341
:1003A000DF9300D01F92CDB7DEB78B831A821982FC
:1003B00027C088E290E028E0FC01208388E290E0FA
:1003C00028E230E0F9012081422F2B81222F30E0FA
:1003D000098002C0359527950A94E2F72170242BF5
:1003E000FC01208388E290E028E230E0F9012081DE
:1003F0002260FC01208389819A8101969A838983F6
:1004000089819A810897ACF288E290E028E230E096
:10041000F90120812460FC01208388E290E0FC0146
:10042000108200000F900F900F90DF91CF910895F0
:10043000CF93DF9300D0CDB7DEB79A8389838981CC
:100440009A818230910571F1833091052CF40097E7
:1004500071F0019789F07EC08430910509F470C075
:1004600084309105ACF1059709F46FC073C081E049
:1004700090E09A83898371C080E290E0FC018081E2
:10048000882F90E08095909587709927039729F49D
:1004900082E090E09A83898360C081E090E09A8353
:1004A00089835BC080E290E0FC018081882F90E02E
:1004B0008095909587709927892B29F483E090E0A7
:1004C0009A8389834AC082E090E09A83898345C0F9
:1004D00080E290E0FC018081882F90E080959095EB
:1004E00087709927039729F481E090E09A838983A4
:1004F00034C080E290E0FC018081882F90E08095FC
:10050000909587709927029729F485E090E09A8367
:10051000898323C080E290E0FC018081882F90E0F5
:100520008095909587709927019729F484E090E051
:100530009A83898312C083E090E09A8389830DC0F7
:1005400083E090E09A83898308C083E090E09A83F7
:10055000898303C01A821982000089819A818230BE
:100560009105A1F0833091052CF4009759F1019782
:1005700051F024C08430910569F08430910524F154
:100580000597B1F01BC010924B011FC081E0809312
:100590004B011BC080914B01843030F480914B01A2
:1005A0008F5F80934B0111C081E080934B010DC0A0
:1005B00080914B01815080934B0107C081E0809373
:1005C0004B0103C0000001C0000089819A810F9097
:1005D0000F90DF91CF910895CF93DF9300D0CDB7E7
:1005E000DEB79A83898389819A818230910521F1CE
:1005F000833091052CF4009761F0019779F030C0B9
:100600008430910519F184309105DCF0059719F1DA
:1006100027C081E090E09A83898325C080914B01B7
:10062000813029F482E090E09A8389831CC081E0C4
:1006300090E09A83898317C083E090E09A8389834E
:1006400012C084E090E09A8389830DC085E090E039
:100650009A83898308C082E090E09A83898303C0EB
:100660001A821982000089819A818230910589F06D
:10067000833091052CF40097E1F00197E1F01CC064
:100680008430910571F0843091053CF0059769F054
:1006900013C081E80E94CF010FC082E40E94CF0105
:1006A0000BC084E20E94CF0107C088E10E94CF0105
:1006B00003C0000001C0000089819A810F900F9053
:1006C000DF91CF910895CF93DF9300D0CDB7DEB700
:1006D0009A83898389819A818230910521F18330BF
:1006E00091052CF4009761F0019779F030C08430C7
:1006F000910519F184309105DCF0059719F127C0B7
:1007000081E090E09A83898325C080914B018230FB
:1007100029F482E090E09A8389831CC081E090E014
:100720009A83898317C083E090E09A83898312C0FB
:1007300084E090E09A8389830DC085E090E09A83FD
:10074000898308C082E090E09A83898303C01A827B
:100750001982000089819A818230910589F0833065
:1007600091052CF40097E1F00197E1F01CC0843072
:10077000910571F0843091053CF0059769F013C044
:1007800080EA0E94CF010FC08AE00E94CF010BC017
:1007900080E50E94CF0107C085E00E94CF0103C021
:1007A000000001C0000089819A810F900F90DF91B5
:1007B000CF910895CF93DF9300D0CDB7DEB79A8362
:1007C000898389819A81092E000CAA0BBB0B40E01A
:1007D00050E029E030E0841B950B2817390708F416
:1007E00040C08A5B9F4FFC010C940C0681E090E0B6
:1007F0009A83898339C080914B01833029F482E048
:1008000090E09A83898330C081E090E09A83898365
:100810002BC083E090E09A83898326C084E090E037
:100820009A83898321C085E090E09A8389831CC0E4
:1008300086E090E09A83898317C087E090E09A83EE
:10084000898312C088E090E09A8389830DC089E093
:1008500090E09A83898308C082E090E09A8389833C
:1008600003C01A821982000089819A81092E000C26
:10087000AA0BBB0B40E050E029E030E0841B950B55
:100880002817390728F1805B9F4FFC010C940C0658
:1008900081E00E94CF011FC082E00E94CF011BC0F7
:1008A00084E00E94CF0117C088E00E94CF0113C0EE
:1008B00080E10E94CF010FC080E20E94CF010BC0F7
:1008C00080E40E94CF0107C080E80E94CF0103C0EE
:1008D000000001C0000089819A810F900F90DF9184
:1008E000CF9108950F931F93CF93DF93CDB7DEB7CA
:1008F0002D970FB6F894DEBF0FBECDBF81E290E01A
:10090000FC01108282E290E02FEFFC01208387E25D
:1009100090E02FEFFC01208388E290E0FC01108240
:1009200088E0E2E1F1E0DE01169601900D928A95F1
:10093000E1F784E090E09C838B838FEF8D838D8142
:1009400080931F0188EC90E0A0E0B0E0809320014C
:1009500090932101A0932201B09323018091200163
:1009600090912101A0912201B09123018093240153
:1009700090932501A0932601B093270188E192E08E
:1009800090932901809328018D8180932A0188EC1E
:1009900090E0A0E0B0E080932B0190932C01A09315
:1009A0002D01B0932E0180912B0190912C01A091EB
:1009B0002D01B0912E0180932F0190933001A093CF
:1009C0003101B09332018CEE92E090933401809328
:1009D00033018D818093350188EC90E0A0E0B0E098
:1009E0008093360190933701A0933801B093390179
:1009F0008091360190913701A0913801B091390171
:100A000080933A0190933B01A0933C01B0933D0148
:100A100083E693E090933F0180933E018D81809324
:100A2000400188EC90E0A0E0B0E080934101909319
:100A30004201A0934301B093440180914101909100
:100A40004201A0914301B0914401809345019093EC
:100A50004601A0934701B09348018AED93E090933B
:100A60004A018093490168EC70E080E090E00E94C8
:100A70007B000E94A9001A8219829CC089819A81F8
:100A8000880F991F9E012F5F3F4F820F931F05967E
:100A9000FC0180819181FC0125813681478150854F
:100AA00089819A81880F991FBE016F5F7F4F860FE2
:100AB000971F0596FC0180819181FC0181819281C3
:100AC000A381B481281739074A075B0709F045C09D
:100AD00089819A81880F991F9E012F5F3F4F820F56
:100AE000931F0596FC010081118189819A81880FED
:100AF000991F9E012F5F3F4F820F931F0596FC01A8
:100B000080819181FC012185328589819A81880FBC
:100B1000991FAE014F5F5F4F840F951F0596FC0133
:100B200080819181FC018081082E000C990BF901D4
:100B30000995F801808389819A81880F991F9E0108
:100B40002F5F3F4F820F931F0596FC01808191819B
:100B5000FC01158216821782108689819A81880F7E
:100B6000991F9E012F5F3F4F820F931F0596FC0137
:100B70002081318189819A81880F991FAE014F5F51
:100B80005F4F840F951F0596FC0180819181FC01C8
:100B900085819681A781B08588539F4FAF4FBF4F06
:100BA000F90185839683A783B08789819A8101960D
:100BB0009A83898329813A818B819C8128173907FF
:100BC00008F45CCF000080911A018823E1F31092B1
:100BD0001A0151CFA1E21A2EAA1BBB1BFD010DC0A9
:100BE000AA1FBB1FEE1FFF1FA217B307E407F507DD
:100BF00020F0A21BB30BE40BF50B661F771F881FB9
:100C0000991F1A9469F760957095809590959B014E
:100C1000AC01BD01CF010895EE0FFF1F0024001CA1
:0E0C20000BBE0790F691E02D0994F894FFCFDB
:100C2E00010000000000000200000000A60100000C
:0A0C3E0000001F012A0135014001EA
:00000001FF
