:100000000C9486000C94A5000C94A5000C94A500FB
:100010000C94A5000C94A5000C94A5000C94A500CC
:100020000C94A5000C94A5000C94A5000C94A500BC
:100030000C94A5000C9423010C94A5000C94A5002D
:100040000C94A5000C94A5000C94A5000C94A5009C
:100050000C94A5000C94A5000C94A5000C94A5008C
:100060000C94A5000C94A5000C94A5000C94A5007C
:100070000C94A5000C94A5000C94A5000C94A5006C
:100080000C94A5000C94A5000C94A5007E0283029C
:10009000E9028D029702CE02B30214033003270354
:1000A00030031B0323031F03DA03E403F003FC0301
:1000B0000804140420042C04380486045C0461043D
:1000C00066046B04700475047A047F0430053505FA
:1000D0009B053F05490580056505C605E205D9056F
:1000E000E205CD05D505D1058C069606A206AE061D
:1000F000BA06C606D206DE06EA0638070E0713075A
:1001000018071D07220727072C07310711241FBED8
:10011000CFEFD0E4DEBFCDBF11E0A0E0B1E0ECE076
:10012000F4E100E00BBF02C007900D92A232B107CC
:10013000D9F721E0A2E2B1E001C01D92A238B207D6
:10014000E1F70E94C6070C94040A0C940000CF93B8
:10015000DF9300D000D0CDB7DEB769837A838B837D
:100160009C8389819A81AB81BC81809300019093AB
:100170000101A0930201B0930301809100019091CD
:100180000101A0910201B09103018093230190939A
:100190002401A0932501B093260100000F900F9039
:1001A0000F900F90DF91CF910895CF93DF93CDB74C
:1001B000DEB781E890E02BE0FC01208388E890E046
:1001C0002DE730E0FC01318320838FE690E022E0D0
:1001D000FC01208384E890E0FC0111821082809170
:1001E000000190910101A0910201B091030180935F
:1001F000230190932401A0932501B09326018FE55C
:1002000090E02FE530E0F90120812068FC01208397
:100210000000DF91CF910895CF93DF93CDB7DEB784
:1002200081E890E0FC0110820000DF91CF910895F9
:10023000CF93DF93CDB7DEB781E08093220100003A
:10024000DF91CF9108951F920F9200905F000F925F
:10025000112400905B000F922F933F934F935F9375
:100260006F937F938F939F93AF93BF93EF93FF937E
:10027000CF93DF93CDB7DEB7809123019091240116
:10028000A0912501B09126010197A109B1098093A0
:10029000230190932401A0932501B093260180911E
:1002A000230190912401A0912501B0912601892B71
:1002B0008A2B8B2B91F40E94180180910001909160
:1002C0000101A0910201B091030180932301909359
:1002D0002401A0932501B09326010000DF91CF9166
:1002E000FF91EF91BF91AF919F918F917F916F910E
:1002F0005F914F913F912F910F9000925B000F9073
:1003000000925F000F901F901895CF93DF93CDB7A9
:10031000DEB72C970FB6F894DEBF0FBECDBF6D834E
:100320007E838F83988729873A874B875C878D8167
:100330009E81AF81B88529853A854B855C85BC0156
:10034000CD010E94D909DC01CB0189839A83AB835B
:10035000BC8389819A81AB81BC81892B8A2B8B2BB1
:1003600029F489859A85AB85BC8511C089859A85D4
:10037000AB85BC858D839E83AF83B88789819A8145
:10038000AB81BC8189879A87AB87BC87D0CFBC0102
:10039000CD012C960FB6F894DEBF0FBECDBFDF9116
:1003A000CF910895CF93DF9300D01F92CDB7DEB7E2
:1003B00089837B836A8389818A3031F48A819B8136
:1003C000BC018DE00E94D20180EC90E0FC018081B4
:1003D000882F90E080729927892BB1F386EC90E00A
:1003E0002981FC01208380E090E00F900F900F9016
:1003F000DF91CF910895CF93DF9300D000D0CDB798
:10040000DEB78B836C831A82198233C08C81813072
:1004100031F488E290E028E0FC01208308C08C8160
:10042000823029F488E290E020E2FC01208388E217
:1004300090E028E230E0F9012081422F2B81222F29
:1004400030E0098002C0359527950A94E2F72170C3
:10045000242BFC01208388E290E028E230E0F901BF
:1004600020812260FC01208389819A8101969A83F0
:10047000898389819A8108974CF28C81813051F46B
:1004800088E290E028E230E0F90120812460FC015C
:1004900020830CC08C81823049F488E290E028E20D
:1004A00030E0F90120812061FC01208388E290E0A6
:1004B000FC01108200000F900F900F900F90DF91C1
:1004C000CF910895CF93DF9300D0CDB7DEB79A8355
:1004D000898389819A81092E000CAA0BBB0B40E00D
:1004E00050E026E030E0841B950B2817390708F40C
:1004F00079C08A5B9F4FFC010C94FB0981E090E07E
:100500009A8389837DC080918101833009F06DC019
:1005100083E090E09A83898368C080918101882379
:1005200009F065C084E090E09A83898360C080917F
:100530008101813029F486E090E09A83898359C053
:1005400080918101823029F485E090E09A8389834B
:1005500050C080918101833009F04BC082E090E06F
:100560009A83898346C080918101813029F485E096
:1005700090E09A8389833FC080918101823029F481
:1005800084E090E09A83898336C080918101833032
:1005900091F582E090E09A8389832DC0809181015A
:1005A000813029F484E090E09A83898326C0809189
:1005B0008101823029F486E090E09A8389831DC00E
:1005C000809181018330C9F482E090E09A8389832D
:1005D00014C080918101882391F481E090E09A8396
:1005E00089830DC01A8219820BC0000009C0000067
:1005F00007C0000005C0000003C0000001C00000EB
:1006000089819A81092E000CAA0BBB0B40E050E0B7
:1006100026E030E0841B950B28173907F8F0835B40
:100620009F4FFC010C94FB091092270161E080E0D0
:100630000E94FB0116C082E08093270112C083E074
:10064000809327010EC081E0809327010AC0109299
:10065000270161E080E00E94FB0103C0000001C0AF
:10066000000089819A810F900F90DF91CF910895BA
:10067000CF93DF9300D0CDB7DEB79A83898389818A
:100680009A818230910519F1833091052CF40097FD
:1006900049F0019781F03FC08330910521F1049723
:1006A00071F139C0809127018130C1F581E090E07E
:1006B0009A83898333C080912701813029F482E0B5
:1006C00090E09A8389832BC01A82198228C0809176
:1006D0002701813029F483E090E09A8389831FC049
:1006E0001A8219821CC080912701813029F484E08C
:1006F00090E09A83898313C01A82198210C0809176
:100700002701813029F481E090E09A83898307C032
:100710001A82198204C01A82198201C000008981DC
:100720009A818230910599F0833091052CF40097DD
:10073000E9F0019739F01BC08330910569F0049707
:1007400081F015C061E081E80E94FB0110C061E00A
:1007500082E40E94FB010BC061E084E20E94FB0185
:1007600006C061E088E10E94FB0101C000008981B0
:100770009A810F900F90DF91CF910895CF93DF93DF
:1007800000D0CDB7DEB79A83898389819A81092EFB
:10079000000CAA0BBB0B40E050E028E030E0841BCB
:1007A000950B2817390708F46FC08C5A9F4FFC012E
:1007B0000C94FB0980912701823009F068C081E028
:1007C00090E09A83898363C080912701823029F465
:1007D00082E090E09A8389835BC01A82198258C0B4
:1007E00080912701823029F483E090E09A83898305
:1007F0004FC01A8219824CC080912701823029F49F
:1008000084E090E09A83898343C01A82198240C0B1
:1008100080912701823029F485E090E09A838983D2
:1008200037C01A82198234C080912701823029F49E
:1008300086E090E09A8389832BC01A82198228C0AF
:1008400080912701823029F487E090E09A838983A0
:100850001FC01A8219821CC080912701823029F49E
:1008600088E090E09A83898313C01A82198210C0AD
:1008700080912701823029F481E090E09A83898376
:1008800007C01A82198204C01A82198201C00000AE
:1008900089819A81092E000CAA0BBB0B40E050E025
:1008A00028E030E0841B950B2817390768F1835A3C
:1008B0009F4FFC010C94FB0961E081E00E94FB0169
:1008C00026C061E082E00E94FB0121C061E084E07B
:1008D0000E94FB011CC061E088E00E94FB0117C080
:1008E00061E080E10E94FB0112C061E080E20E94B1
:1008F000FB010DC061E080E40E94FB0108C061E0E3
:1009000080E80E94FB0103C0000001C00000898153
:100910009A810F900F90DF91CF910895CF93DF933D
:1009200000D0CDB7DEB79A83898389819A818230DE
:10093000910519F1833091052CF4009749F0019746
:1009400081F03FC08330910521F1049771F139C0E6
:10095000809127018330C1F581E090E09A838983FB
:1009600033C080912701833029F482E090E09A839C
:1009700089832BC01A82198228C080912701833075
:1009800029F483E090E09A8389831FC01A82198238
:100990001CC080912701833029F484E090E09A8381
:1009A000898313C01A82198210C080912701833075
:1009B00029F481E090E09A83898307C01A82198222
:1009C00004C01A82198201C0000089819A81823094
:1009D000910599F0833091052CF40097E9F0019787
:1009E00039F01BC08330910569F0049781F015C080
:1009F00061E080EA0E94FB0110C061E08AE00E9491
:100A0000FB010BC061E080E50E94FB0106C061E0D4
:100A100085E00E94FB0101C0000089819A810F904E
:100A20000F90DF91CF910895CF93DF9300D0CDB792
:100A3000DEB79A83898389819A81092E000CAA0BDB
:100A4000BB0B40E050E026E030E0841B950B2817FC
:100A5000390708F479C08A599F4FFC010C94FB09AF
:100A600081E090E09A8389837DC0809181018C3000
:100A700009F06DC083E090E09A83898368C080911B
:100A80008101882309F065C084E090E09A8389831E
:100A900060C080918101843029F486E090E09A83DF
:100AA000898359C080918101883029F485E090E0E4
:100AB0009A83898350C0809181018C3009F04BC0AA
:100AC00082E090E09A83898346C0809181018430DE
:100AD00029F485E090E09A8389833FC08091810169
:100AE000883029F484E090E09A83898336C080912D
:100AF00081018C3091F582E090E09A8389832DC04A
:100B000080918101843029F484E090E09A83898384
:100B100026C080918101883029F486E090E09A8394
:100B200089831DC0809181018C30C9F482E090E0FE
:100B30009A83898314C080918101882391F481E094
:100B400090E09A8389830DC01A8219820BC000003D
:100B500009C0000007C0000005C0000003C000007D
:100B600001C0000089819A81092E000CAA0BBB0BE1
:100B700040E050E026E030E0841B950B2817390751
:100B8000F8F083599F4FFC010C94FB091092280147
:100B900062E080E00E94FB0116C082E080932801A1
:100BA00012C083E0809328010EC081E08093280169
:100BB0000AC01092280162E080E00E94FB0103C09D
:100BC000000001C0000089819A810F900F90DF9191
:100BD000CF910895CF93DF9300D0CDB7DEB79A833E
:100BE000898389819A818230910519F18330910539
:100BF0002CF4009749F0019781F03FC083309105B4
:100C000021F1049771F139C0809128018130C1F53B
:100C100081E090E09A83898333C0809128018130FC
:100C200029F482E090E09A8389832BC01A8219828A
:100C300028C080912801813029F483E090E09A83D4
:100C400089831FC01A8219821CC0809128018130BB
:100C500029F484E090E09A83898313C01A82198270
:100C600010C080912801813029F481E090E09A83BE
:100C7000898307C01A82198204C01A82198201C0AE
:100C8000000089819A818230910599F08330910525
:100C90002CF40097E9F0019739F01BC083309105DF
:100CA00069F0049781F015C062E081E80E94FB01C1
:100CB00010C062E082E40E94FB010BC062E084E2AB
:100CC0000E94FB0106C062E088E10E94FB0101C0B6
:100CD000000089819A810F900F90DF91CF91089544
:100CE000CF93DF9300D0CDB7DEB79A838983898114
:100CF0009A81092E000CAA0BBB0B40E050E028E0C3
:100D000030E0841B950B2817390708F46FC08C5806
:100D10009F4FFC010C94FB0980912801823009F05F
:100D200068C081E090E09A83898363C08091280144
:100D3000823029F482E090E09A8389835BC01A8232
:100D4000198258C080912801823029F483E090E014
:100D50009A8389834FC01A8219824CC080912801DE
:100D6000823029F484E090E09A83898343C01A8218
:100D7000198240C080912801823029F485E090E0FA
:100D80009A83898337C01A82198234C080912801DE
:100D9000823029F486E090E09A8389832BC01A82FE
:100DA000198228C080912801823029F487E090E0E0
:100DB0009A8389831FC01A8219821CC080912801DE
:100DC000823029F488E090E09A83898313C01A82E4
:100DD000198210C080912801823029F481E090E0CE
:100DE0009A83898307C01A82198204C01A821982E1
:100DF00001C0000089819A81092E000CAA0BBB0B4F
:100E000040E050E028E030E0841B950B28173907BC
:100E100068F183589F4FFC010C94FB0962E081E06C
:100E20000E94FB0126C062E082E00E94FB0121C01B
:100E300062E084E00E94FB011CC062E088E00E9446
:100E4000FB0117C062E080E10E94FB0112C062E07A
:100E500080E20E94FB010DC062E080E40E94FB0181
:100E600008C062E080E80E94FB0103C0000001C0EE
:100E7000000089819A810F900F90DF91CF910895A2
:100E8000CF93DF9300D0CDB7DEB79A838983898172
:100E90009A818230910519F1833091052CF40097E5
:100EA00049F0019781F03FC08330910521F104970B
:100EB00071F139C0809128018330C1F581E090E063
:100EC0009A83898333C080912801833029F482E09A
:100ED00090E09A8389832BC01A82198228C080915E
:100EE0002801833029F483E090E09A8389831FC02E
:100EF0001A8219821CC080912801833029F484E071
:100F000090E09A83898313C01A82198210C080915D
:100F10002801833029F481E090E09A83898307C017
:100F20001A82198204C01A82198201C000008981C4
:100F30009A818230910599F0833091052CF40097C5
:100F4000E9F0019739F01BC08330910569F00497EF
:100F500081F015C062E080EA0E94FB0110C062E0EF
:100F60008AE00E94FB010BC062E080E50E94FB0169
:100F700006C062E085E00E94FB0101C0000089819B
:100F80009A810F900F90DF91CF9108950F931F9347
:100F9000CF93DF93CDB7DEB765970FB6F894DEBF7A
:100FA0000FBECDBF81E290E0FC01108282E290E0B2
:100FB0002FEFFC01208387E290E02FEFFC012083DC
:100FC00088E290E0FC01108280E1E2E1F1E0DE01E4
:100FD000169601900D928A95E1F788E090E09C8347
:100FE0008B838FEF8D838D818093290188EC90E036
:100FF000A0E0B0E080932A0190932B01A0932C01F4
:10100000B0932D0180912A0190912B01A0912C0188
:10101000B0912D0180932E0190932F01A093300168
:10102000B093310182E692E09093330180933201D4
:101030008D818093340188EC90E0A0E0B0E0809353
:10104000350190933601A0933701B0933801809118
:10105000350190913601A0913701B091380180930C
:10106000390190933A01A0933B01B0933C0188E38E
:1010700093E090933E0180933D018D8180933F01E9
:1010800088EC90E0A0E0B0E08093400190934101B3
:10109000A0934201B093430180914001909141019E
:1010A000A0914201B0914301809344019093450186
:1010B000A0934601B09347018EE894E090934901D4
:1010C000809348018D8180934A0188EC90E0A0E0F4
:1010D000B0E080934B0190934C01A0934D01B093ED
:1010E0004E0180914B0190914C01A0914D01B09126
:1010F0004E0180934F0190935001A0935101B09302
:1011000052018EEB93E090935401809353018D81B3
:101110008093550188EC90E0A0E0B0E08093560108
:1011200090935701A0935801B093590180915601B3
:1011300090915701A0915801B091590180935A01A3
:1011400090935B01A0935C01B0935D0184E195E015
:1011500090935F0180935E018D818093600188ECA4
:1011600090E0A0E0B0E08093610190936201A093D1
:101170006301B09364018091610190916201A0913B
:101180006301B09164018093650190936601A0931F
:101190006701B09368018AEE95E090936A018093AD
:1011A00069018D8180936B0188EC90E0A0E0B0E054
:1011B00080936C0190936D01A0936E01B0936F01C9
:1011C00080916C0190916D01A0916E01B0916F01C1
:1011D0008093700190937101A0937201B093730199
:1011E00080E497E090937501809374018D818093E2
:1011F000760188EC90E0A0E0B0E0809377019093D6
:101200007801A0937901B0937A0180917701909150
:101210007801A0917901B0917A0180937B0190933C
:101220007C01A0937D01B0937E0180E796E09093CE
:10123000800180937F0168EC70E080E090E00E9484
:10124000A7000E94D5001A821982A3C080E290E014
:10125000FC01808180958093810189819A81880F2A
:10126000991F9E012F5F3F4F820F931F0596FC0130
:1012700080819181FC01258136814781508589815A
:101280009A81880F991FBE016F5F7F4F860F971F4E
:101290000596FC0180819181FC0181819281A3816D
:1012A000B481281739074A075B0709F045C08981CF
:1012B0009A81880F991F9E012F5F3F4F820F931FC6
:1012C0000596FC010081118189819A81880F991FFF
:1012D0009E012F5F3F4F820F931F0596FC01808177
:1012E0009181FC012185328589819A81880F991F1E
:1012F000AE014F5F5F4F840F951F0596FC01808103
:101300009181FC018081082E000C990BF90109954F
:10131000F801808389819A81880F991F9E012F5F30
:101320003F4F820F931F0596FC0180819181FC0144
:10133000158216821782108689819A81880F991FDB
:101340009E012F5F3F4F820F931F0596FC01208166
:10135000318189819A81880F991FAE014F5F5F4F5C
:10136000840F951F0596FC0180819181FC01858188
:101370009681A781B08588539F4FAF4FBF4FF9012A
:1013800085839683A783B08789819A8101969A8302
:10139000898329813A818B819C812817390708F438
:1013A00055CF0000809122018823E1F310922201A1
:1013B0004ACFA1E21A2EAA1BBB1BFD010DC0AA1F1A
:1013C000BB1FEE1FFF1FA217B307E407F50720F0AE
:1013D000A21BB30BE40BF50B661F771F881F991F29
:1013E0001A9469F760957095809590959B01AC0172
:1013F000BD01CF010895EE0FFF1F0024001C0BBE9E
:0C1400000790F691E02D0994F894FFCFBE
:10140C00010000000000000200000000D2010000FA
:10141C000000290134013F014A01550160016B01B3
:02142C00760147
:00000001FF
