:100000000C9456000C9475000C9475000C947500BB
:100010000C9475000C9475000C9475000C9475008C
:100020000C9475000C9475000C9475000C9475007C
:100030000C9475000C94F3000C9475000C947500EE
:100040000C9475000C9475000C9475000C9475005C
:100050000C9475000C9475000C9475000C9475004C
:100060000C9475000C9475000C9475000C9475003C
:100070000C9475000C9475000C9475000C9475002C
:100080000C9475000C9475000C94750036023D02BA
:10009000440266026D027F0286029802F602C502E1
:1000A000F602CC02F602DC02F602EC0211241FBEBC
:1000B000CFEFD0E4DEBFCDBF11E0A0E0B1E0E6E9D4
:1000C000F6E000E00BBF02C007900D92A231B1072D
:1000D000D9F721E0A2E1B1E001C01D92AC31B20735
:1000E000E1F70E9405030C9449030C940000CF93A0
:1000F000DF9300D000D0CDB7DEB769837A838B83DE
:100100009C8389819A81AB81BC818093000190930B
:100110000101A0930201B09303018091000190912D
:100120000101A0910201B09103018093130190930A
:100130001401A0931501B093160100000F900F90C9
:100140000F900F90DF91CF910895CF93DF93CDB7AC
:10015000DEB781E890E02BE0FC01208388E890E0A6
:100160002DE730E0FC01318320838FE690E022E030
:10017000FC01208384E890E0FC01118210828091D0
:10018000000190910101A0910201B09103018093BF
:10019000130190931401A0931501B09316018FE5FC
:1001A00090E02FE530E0F90120812068FC012083F8
:1001B0000000DF91CF910895CF93DF93CDB7DEB7E5
:1001C00081E890E0FC0110820000DF91CF9108955A
:1001D000CF93DF93CDB7DEB781E0809312010000AB
:1001E000DF91CF9108951F920F9200905F000F92C0
:1001F000112400905B000F922F933F934F935F93D6
:100200006F937F938F939F93AF93BF93EF93FF93DE
:10021000CF93DF93CDB7DEB7809113019091140196
:10022000A0911501B09116010197A109B109809320
:10023000130190931401A0931501B09316018091BE
:10024000130190911401A0911501B0911601892B11
:100250008A2B8B2B91F40E94E800809100019091F1
:100260000101A0910201B0910301809313019093C9
:100270001401A0931501B09316010000DF91CF91F6
:10028000FF91EF91BF91AF919F918F917F916F916E
:100290005F914F913F912F910F9000925B000F90D3
:1002A00000925F000F901F901895CF93DF93CDB70A
:1002B000DEB72C970FB6F894DEBF0FBECDBF6D83AF
:1002C0007E838F83988729873A874B875C878D81C8
:1002D0009E81AF81B88529853A854B855C85BC01B7
:1002E000CD010E941E03DC01CB0189839A83AB837D
:1002F000BC8389819A81AB81BC81892B8A2B8B2B12
:1003000029F489859A85AB85BC8511C089859A8534
:10031000AB85BC858D839E83AF83B88789819A81A5
:10032000AB81BC8189879A87AB87BC87D0CFBC0162
:10033000CD012C960FB6F894DEBF0FBECDBFDF9176
:10034000CF910895CF93DF9300D01F92CDB7DEB742
:1003500089837B836A8389818A3031F48A819B8196
:10036000BC018DE00E94A20180EC90E0FC01808144
:10037000882F90E080729927892BB1F386EC90E06A
:100380002981FC01208380E090E00F900F900F9076
:10039000DF91CF910895CF93DF9300D000D0CDB7F8
:1003A000DEB79C838B831A82198225C088E290E095
:1003B00028E0FC01208388E290E028E230E0F901A7
:1003C00040812B813C81098002C0369527950A9493
:1003D000E2F72170242BFC01208388E290E028E2E0
:1003E00030E0F90120812260FC01208389819A811B
:1003F00001969A83898389819A814097BCF288E229
:1004000090E028E230E0F90120812460FC012083A3
:1004100088E290E0FC01108200000F900F900F9096
:100420000F90DF91CF910895CF93DF93CDB7DEB7D3
:1004300080E290E0FC0180818095877080931B01B1
:100440008091190190911A01CC01A0E0B0E040E048
:1004500050E027E030E0841B950B2817390708F49B
:1004600079C08A5B9F4FFC010C94400381E090E0CF
:1004700090931A018093190173C082E090E09093E9
:100480001A01809319016CC080911B01833039F4EB
:1004900087E090E090931A018093190160C08091E9
:1004A0001B01813039F483E090E090931A0180932E
:1004B000190155C080911B01823009F050C085E0C0
:1004C00090E090931A018093190149C084E090E074
:1004D00090931A018093190143C080911B018130D0
:1004E00039F484E090E090931A018093190138C0A8
:1004F00082E090E090931A018093190131C086E068
:1005000090E090931A01809319012AC080911B01F9
:10051000823039F486E090E090931A0180931901BB
:100520001FC082E090E090931A018093190118C0D7
:1005300080911B01833039F487E090E090931A0199
:10054000809319010DC082E090E090931A0180938E
:10055000190106C010921A011092190101C0000081
:100560008091190190911A01CC01A0E0B0E040E027
:1005700050E027E030E0841B950B2817390788F1FD
:10058000825B9F4FFC010C9440038FEF92E09093AD
:100590001801809317012FC08091170190911801C5
:1005A000019631F180911701909118010196909375
:1005B0001801809317011CC08091170190911801B8
:1005C000892BC1F0809117019091180101979093A8
:1005D0001801809317010EC0109218011092170194
:1005E0000AC0109218011092170105C0000003C044
:1005F000000001C0000080911701909118010E9435
:10060000CB010000DF91CF910895CF93DF93CDB759
:10061000DEB781E290E0FC01108282E290E02FEFF1
:10062000FC01208387E290E02FEFFC01208388E229
:1006300090E0FC0110820E941402FDCFA1E21A2E6C
:10064000AA1BBB1BFD010DC0AA1FBB1FEE1FFF1F76
:10065000A217B307E407F50720F0A21BB30BE40BC6
:10066000F50B661F771F881F991F1A9469F760950D
:100670007095809590959B01AC01BD01CF010895C7
:10068000EE0FFF1F0024001C0BBE0790F691E02D1B
:060690000994F894FFCF6D
:10069600010000000000000200000000A2010000AE
:0206A600000052
:00000001FF
